{
  "contractName": "TransactionContract",
  "abi": [
    {
      "anonymous": false,
      "inputs": [
        {
          "indexed": true,
          "internalType": "uint256",
          "name": "transactionId",
          "type": "uint256"
        },
        {
          "indexed": false,
          "internalType": "string",
          "name": "paymentStatus",
          "type": "string"
        },
        {
          "indexed": false,
          "internalType": "uint256",
          "name": "updateAt",
          "type": "uint256"
        }
      ],
      "name": "PaymentStatusUpdated",
      "type": "event"
    },
    {
      "anonymous": false,
      "inputs": [
        {
          "indexed": true,
          "internalType": "uint256",
          "name": "transactionId",
          "type": "uint256"
        },
        {
          "indexed": false,
          "internalType": "string",
          "name": "transactionCode",
          "type": "string"
        },
        {
          "indexed": false,
          "internalType": "string",
          "name": "buyer",
          "type": "string"
        },
        {
          "indexed": false,
          "internalType": "string",
          "name": "buyerId",
          "type": "string"
        },
        {
          "indexed": false,
          "internalType": "string",
          "name": "sellerCompany",
          "type": "string"
        },
        {
          "indexed": false,
          "internalType": "string",
          "name": "sellerId",
          "type": "string"
        },
        {
          "indexed": false,
          "internalType": "uint256",
          "name": "sumOfProduct",
          "type": "uint256"
        },
        {
          "indexed": false,
          "internalType": "string",
          "name": "totalPrice",
          "type": "string"
        },
        {
          "indexed": false,
          "internalType": "string",
          "name": "paymentStatus",
          "type": "string"
        },
        {
          "indexed": false,
          "internalType": "uint256",
          "name": "createdAt",
          "type": "uint256"
        }
      ],
      "name": "TransactionAdded",
      "type": "event"
    },
    {
      "inputs": [],
      "name": "transactionCount",
      "outputs": [
        {
          "internalType": "uint256",
          "name": "",
          "type": "uint256"
        }
      ],
      "stateMutability": "view",
      "type": "function",
      "constant": true
    },
    {
      "inputs": [
        {
          "internalType": "uint256",
          "name": "",
          "type": "uint256"
        }
      ],
      "name": "transactions",
      "outputs": [
        {
          "internalType": "uint256",
          "name": "transactionId",
          "type": "uint256"
        },
        {
          "internalType": "string",
          "name": "transactionCode",
          "type": "string"
        },
        {
          "internalType": "string",
          "name": "buyer",
          "type": "string"
        },
        {
          "internalType": "string",
          "name": "buyerId",
          "type": "string"
        },
        {
          "internalType": "string",
          "name": "sellerCompany",
          "type": "string"
        },
        {
          "internalType": "string",
          "name": "sellerId",
          "type": "string"
        },
        {
          "internalType": "uint256",
          "name": "sumOfProduct",
          "type": "uint256"
        },
        {
          "internalType": "string",
          "name": "totalPrice",
          "type": "string"
        },
        {
          "internalType": "string",
          "name": "paymentStatus",
          "type": "string"
        },
        {
          "internalType": "uint256",
          "name": "createdAt",
          "type": "uint256"
        }
      ],
      "stateMutability": "view",
      "type": "function",
      "constant": true
    },
    {
      "inputs": [
        {
          "internalType": "string",
          "name": "_transactionCode",
          "type": "string"
        },
        {
          "internalType": "string",
          "name": "_buyer",
          "type": "string"
        },
        {
          "internalType": "string",
          "name": "_buyerId",
          "type": "string"
        },
        {
          "internalType": "string",
          "name": "_sellerCompany",
          "type": "string"
        },
        {
          "internalType": "string",
          "name": "_sellerId",
          "type": "string"
        },
        {
          "internalType": "uint256",
          "name": "_sumOfProduct",
          "type": "uint256"
        },
        {
          "internalType": "string",
          "name": "_totalPrice",
          "type": "string"
        },
        {
          "internalType": "string",
          "name": "_paymentStatus",
          "type": "string"
        },
        {
          "internalType": "uint256",
          "name": "_createdAt",
          "type": "uint256"
        }
      ],
      "name": "addTransaction",
      "outputs": [],
      "stateMutability": "nonpayable",
      "type": "function"
    },
    {
      "inputs": [
        {
          "internalType": "uint256",
          "name": "_transactionId",
          "type": "uint256"
        }
      ],
      "name": "getTransaction",
      "outputs": [
        {
          "components": [
            {
              "internalType": "uint256",
              "name": "transactionId",
              "type": "uint256"
            },
            {
              "internalType": "string",
              "name": "transactionCode",
              "type": "string"
            },
            {
              "internalType": "string",
              "name": "buyer",
              "type": "string"
            },
            {
              "internalType": "string",
              "name": "buyerId",
              "type": "string"
            },
            {
              "internalType": "string",
              "name": "sellerCompany",
              "type": "string"
            },
            {
              "internalType": "string",
              "name": "sellerId",
              "type": "string"
            },
            {
              "internalType": "uint256",
              "name": "sumOfProduct",
              "type": "uint256"
            },
            {
              "internalType": "string",
              "name": "totalPrice",
              "type": "string"
            },
            {
              "internalType": "string",
              "name": "paymentStatus",
              "type": "string"
            },
            {
              "internalType": "uint256",
              "name": "createdAt",
              "type": "uint256"
            }
          ],
          "internalType": "struct TransactionContract.Transaction",
          "name": "",
          "type": "tuple"
        }
      ],
      "stateMutability": "view",
      "type": "function",
      "constant": true
    },
    {
      "inputs": [
        {
          "internalType": "uint256",
          "name": "_transactionId",
          "type": "uint256"
        },
        {
          "internalType": "string",
          "name": "_paymentStatus",
          "type": "string"
        },
        {
          "internalType": "uint256",
          "name": "_createdAt",
          "type": "uint256"
        }
      ],
      "name": "updatePaymentStatus",
      "outputs": [],
      "stateMutability": "nonpayable",
      "type": "function"
    },
    {
      "inputs": [],
      "name": "getAllTransaction",
      "outputs": [
        {
          "components": [
            {
              "internalType": "uint256",
              "name": "transactionId",
              "type": "uint256"
            },
            {
              "internalType": "string",
              "name": "transactionCode",
              "type": "string"
            },
            {
              "internalType": "string",
              "name": "buyer",
              "type": "string"
            },
            {
              "internalType": "string",
              "name": "buyerId",
              "type": "string"
            },
            {
              "internalType": "string",
              "name": "sellerCompany",
              "type": "string"
            },
            {
              "internalType": "string",
              "name": "sellerId",
              "type": "string"
            },
            {
              "internalType": "uint256",
              "name": "sumOfProduct",
              "type": "uint256"
            },
            {
              "internalType": "string",
              "name": "totalPrice",
              "type": "string"
            },
            {
              "internalType": "string",
              "name": "paymentStatus",
              "type": "string"
            },
            {
              "internalType": "uint256",
              "name": "createdAt",
              "type": "uint256"
            }
          ],
          "internalType": "struct TransactionContract.Transaction[]",
          "name": "",
          "type": "tuple[]"
        }
      ],
      "stateMutability": "view",
      "type": "function",
      "constant": true
    },
    {
      "inputs": [
        {
          "internalType": "string",
          "name": "_buyerId",
          "type": "string"
        }
      ],
      "name": "getTransactionByBuyerId",
      "outputs": [
        {
          "components": [
            {
              "internalType": "uint256",
              "name": "transactionId",
              "type": "uint256"
            },
            {
              "internalType": "string",
              "name": "transactionCode",
              "type": "string"
            },
            {
              "internalType": "string",
              "name": "buyer",
              "type": "string"
            },
            {
              "internalType": "string",
              "name": "buyerId",
              "type": "string"
            },
            {
              "internalType": "string",
              "name": "sellerCompany",
              "type": "string"
            },
            {
              "internalType": "string",
              "name": "sellerId",
              "type": "string"
            },
            {
              "internalType": "uint256",
              "name": "sumOfProduct",
              "type": "uint256"
            },
            {
              "internalType": "string",
              "name": "totalPrice",
              "type": "string"
            },
            {
              "internalType": "string",
              "name": "paymentStatus",
              "type": "string"
            },
            {
              "internalType": "uint256",
              "name": "createdAt",
              "type": "uint256"
            }
          ],
          "internalType": "struct TransactionContract.Transaction[]",
          "name": "",
          "type": "tuple[]"
        }
      ],
      "stateMutability": "view",
      "type": "function",
      "constant": true
    },
    {
      "inputs": [
        {
          "internalType": "string",
          "name": "_sellerId",
          "type": "string"
        }
      ],
      "name": "getTransactionBySellerId",
      "outputs": [
        {
          "components": [
            {
              "internalType": "uint256",
              "name": "transactionId",
              "type": "uint256"
            },
            {
              "internalType": "string",
              "name": "transactionCode",
              "type": "string"
            },
            {
              "internalType": "string",
              "name": "buyer",
              "type": "string"
            },
            {
              "internalType": "string",
              "name": "buyerId",
              "type": "string"
            },
            {
              "internalType": "string",
              "name": "sellerCompany",
              "type": "string"
            },
            {
              "internalType": "string",
              "name": "sellerId",
              "type": "string"
            },
            {
              "internalType": "uint256",
              "name": "sumOfProduct",
              "type": "uint256"
            },
            {
              "internalType": "string",
              "name": "totalPrice",
              "type": "string"
            },
            {
              "internalType": "string",
              "name": "paymentStatus",
              "type": "string"
            },
            {
              "internalType": "uint256",
              "name": "createdAt",
              "type": "uint256"
            }
          ],
          "internalType": "struct TransactionContract.Transaction[]",
          "name": "",
          "type": "tuple[]"
        }
      ],
      "stateMutability": "view",
      "type": "function",
      "constant": true
    }
  ],
  "bytecode": "0x608060405234801561000f575f80fd5b5061305b8061001d5f395ff3fe608060405234801561000f575f80fd5b5060043610610086575f3560e01c8063b77bf60011610059578063b77bf60014610141578063ce8481fd1461015f578063e55d57df1461017b578063eb559a1e146101ab57610086565b806333ea3dc81461008a5780639311f732146100ba5780639ace38c2146100ea578063add6415d14610123575b5f80fd5b6100a4600480360381019061009f9190612255565b6101c7565b6040516100b1919061241a565b60405180910390f35b6100d460048036038101906100cf9190612566565b6105ff565b6040516100e19190612769565b60405180910390f35b61010460048036038101906100ff9190612255565b610bda565b60405161011a9a999897969594939291906127e0565b60405180910390f35b61012b610fd3565b6040516101389190612769565b60405180910390f35b6101496114ab565b60405161015691906128ab565b60405180910390f35b610179600480360381019061017491906128c4565b6114b1565b005b61019560048036038101906101909190612566565b611a65565b6040516101a29190612769565b60405180910390f35b6101c560048036038101906101c09190612930565b612040565b005b6101cf6121c1565b5f808381526020019081526020015f20604051806101400160405290815f820154815260200160018201805461020490612ae5565b80601f016020809104026020016040519081016040528092919081815260200182805461023090612ae5565b801561027b5780601f106102525761010080835404028352916020019161027b565b820191905f5260205f20905b81548152906001019060200180831161025e57829003601f168201915b5050505050815260200160028201805461029490612ae5565b80601f01602080910402602001604051908101604052809291908181526020018280546102c090612ae5565b801561030b5780601f106102e25761010080835404028352916020019161030b565b820191905f5260205f20905b8154815290600101906020018083116102ee57829003601f168201915b5050505050815260200160038201805461032490612ae5565b80601f016020809104026020016040519081016040528092919081815260200182805461035090612ae5565b801561039b5780601f106103725761010080835404028352916020019161039b565b820191905f5260205f20905b81548152906001019060200180831161037e57829003601f168201915b505050505081526020016004820180546103b490612ae5565b80601f01602080910402602001604051908101604052809291908181526020018280546103e090612ae5565b801561042b5780601f106104025761010080835404028352916020019161042b565b820191905f5260205f20905b81548152906001019060200180831161040e57829003601f168201915b5050505050815260200160058201805461044490612ae5565b80601f016020809104026020016040519081016040528092919081815260200182805461047090612ae5565b80156104bb5780601f10610492576101008083540402835291602001916104bb565b820191905f5260205f20905b81548152906001019060200180831161049e57829003601f168201915b50505050508152602001600682015481526020016007820180546104de90612ae5565b80601f016020809104026020016040519081016040528092919081815260200182805461050a90612ae5565b80156105555780601f1061052c57610100808354040283529160200191610555565b820191905f5260205f20905b81548152906001019060200180831161053857829003601f168201915b5050505050815260200160088201805461056e90612ae5565b80601f016020809104026020016040519081016040528092919081815260200182805461059a90612ae5565b80156105e55780601f106105bc576101008083540402835291602001916105e5565b820191905f5260205f20905b8154815290600101906020018083116105c857829003601f168201915b505050505081526020016009820154815250509050919050565b60605f80600190505b600154811161069857836040516020016106229190612b4f565b604051602081830303815290604052805190602001205f808381526020019081526020015f2060050160405160200161065b9190612bf7565b604051602081830303815290604052805190602001200361068557818061068190612c3a565b9250505b808061069090612c3a565b915050610608565b505f8167ffffffffffffffff8111156106b4576106b3612442565b5b6040519080825280602002602001820160405280156106ed57816020015b6106da6121c1565b8152602001906001900390816106d25790505b5090505f80600190505b6001548111610bce57856040516020016107119190612b4f565b604051602081830303815290604052805190602001205f808381526020019081526020015f2060050160405160200161074a9190612bf7565b6040516020818303038152906040528051906020012003610bbb575f808281526020019081526020015f20604051806101400160405290815f820154815260200160018201805461079a90612ae5565b80601f01602080910402602001604051908101604052809291908181526020018280546107c690612ae5565b80156108115780601f106107e857610100808354040283529160200191610811565b820191905f5260205f20905b8154815290600101906020018083116107f457829003601f168201915b5050505050815260200160028201805461082a90612ae5565b80601f016020809104026020016040519081016040528092919081815260200182805461085690612ae5565b80156108a15780601f10610878576101008083540402835291602001916108a1565b820191905f5260205f20905b81548152906001019060200180831161088457829003601f168201915b505050505081526020016003820180546108ba90612ae5565b80601f01602080910402602001604051908101604052809291908181526020018280546108e690612ae5565b80156109315780601f1061090857610100808354040283529160200191610931565b820191905f5260205f20905b81548152906001019060200180831161091457829003601f168201915b5050505050815260200160048201805461094a90612ae5565b80601f016020809104026020016040519081016040528092919081815260200182805461097690612ae5565b80156109c15780601f10610998576101008083540402835291602001916109c1565b820191905f5260205f20905b8154815290600101906020018083116109a457829003601f168201915b505050505081526020016005820180546109da90612ae5565b80601f0160208091040260200160405190810160405280929190818152602001828054610a0690612ae5565b8015610a515780601f10610a2857610100808354040283529160200191610a51565b820191905f5260205f20905b815481529060010190602001808311610a3457829003601f168201915b5050505050815260200160068201548152602001600782018054610a7490612ae5565b80601f0160208091040260200160405190810160405280929190818152602001828054610aa090612ae5565b8015610aeb5780601f10610ac257610100808354040283529160200191610aeb565b820191905f5260205f20905b815481529060010190602001808311610ace57829003601f168201915b50505050508152602001600882018054610b0490612ae5565b80601f0160208091040260200160405190810160405280929190818152602001828054610b3090612ae5565b8015610b7b5780601f10610b5257610100808354040283529160200191610b7b565b820191905f5260205f20905b815481529060010190602001808311610b5e57829003601f168201915b50505050508152602001600982015481525050838381518110610ba157610ba0612c81565b5b60200260200101819052508180610bb790612c3a565b9250505b8080610bc690612c3a565b9150506106f7565b50819350505050919050565b5f602052805f5260405f205f91509050805f015490806001018054610bfe90612ae5565b80601f0160208091040260200160405190810160405280929190818152602001828054610c2a90612ae5565b8015610c755780601f10610c4c57610100808354040283529160200191610c75565b820191905f5260205f20905b815481529060010190602001808311610c5857829003601f168201915b505050505090806002018054610c8a90612ae5565b80601f0160208091040260200160405190810160405280929190818152602001828054610cb690612ae5565b8015610d015780601f10610cd857610100808354040283529160200191610d01565b820191905f5260205f20905b815481529060010190602001808311610ce457829003601f168201915b505050505090806003018054610d1690612ae5565b80601f0160208091040260200160405190810160405280929190818152602001828054610d4290612ae5565b8015610d8d5780601f10610d6457610100808354040283529160200191610d8d565b820191905f5260205f20905b815481529060010190602001808311610d7057829003601f168201915b505050505090806004018054610da290612ae5565b80601f0160208091040260200160405190810160405280929190818152602001828054610dce90612ae5565b8015610e195780601f10610df057610100808354040283529160200191610e19565b820191905f5260205f20905b815481529060010190602001808311610dfc57829003601f168201915b505050505090806005018054610e2e90612ae5565b80601f0160208091040260200160405190810160405280929190818152602001828054610e5a90612ae5565b8015610ea55780601f10610e7c57610100808354040283529160200191610ea5565b820191905f5260205f20905b815481529060010190602001808311610e8857829003601f168201915b505050505090806006015490806007018054610ec090612ae5565b80601f0160208091040260200160405190810160405280929190818152602001828054610eec90612ae5565b8015610f375780601f10610f0e57610100808354040283529160200191610f37565b820191905f5260205f20905b815481529060010190602001808311610f1a57829003601f168201915b505050505090806008018054610f4c90612ae5565b80601f0160208091040260200160405190810160405280929190818152602001828054610f7890612ae5565b8015610fc35780601f10610f9a57610100808354040283529160200191610fc3565b820191905f5260205f20905b815481529060010190602001808311610fa657829003601f168201915b505050505090806009015490508a565b60605f60015467ffffffffffffffff811115610ff257610ff1612442565b5b60405190808252806020026020018201604052801561102b57816020015b6110186121c1565b8152602001906001900390816110105790505b5090505f600190505b60015481116114a3575f808281526020019081526020015f20604051806101400160405290815f820154815260200160018201805461107290612ae5565b80601f016020809104026020016040519081016040528092919081815260200182805461109e90612ae5565b80156110e95780601f106110c0576101008083540402835291602001916110e9565b820191905f5260205f20905b8154815290600101906020018083116110cc57829003601f168201915b5050505050815260200160028201805461110290612ae5565b80601f016020809104026020016040519081016040528092919081815260200182805461112e90612ae5565b80156111795780601f1061115057610100808354040283529160200191611179565b820191905f5260205f20905b81548152906001019060200180831161115c57829003601f168201915b5050505050815260200160038201805461119290612ae5565b80601f01602080910402602001604051908101604052809291908181526020018280546111be90612ae5565b80156112095780601f106111e057610100808354040283529160200191611209565b820191905f5260205f20905b8154815290600101906020018083116111ec57829003601f168201915b5050505050815260200160048201805461122290612ae5565b80601f016020809104026020016040519081016040528092919081815260200182805461124e90612ae5565b80156112995780601f1061127057610100808354040283529160200191611299565b820191905f5260205f20905b81548152906001019060200180831161127c57829003601f168201915b505050505081526020016005820180546112b290612ae5565b80601f01602080910402602001604051908101604052809291908181526020018280546112de90612ae5565b80156113295780601f1061130057610100808354040283529160200191611329565b820191905f5260205f20905b81548152906001019060200180831161130c57829003601f168201915b505050505081526020016006820154815260200160078201805461134c90612ae5565b80601f016020809104026020016040519081016040528092919081815260200182805461137890612ae5565b80156113c35780601f1061139a576101008083540402835291602001916113c3565b820191905f5260205f20905b8154815290600101906020018083116113a657829003601f168201915b505050505081526020016008820180546113dc90612ae5565b80601f016020809104026020016040519081016040528092919081815260200182805461140890612ae5565b80156114535780601f1061142a57610100808354040283529160200191611453565b820191905f5260205f20905b81548152906001019060200180831161143657829003601f168201915b50505050508152602001600982015481525050826001836114749190612cae565b8151811061148557611484612c81565b5b6020026020010181905250808061149b90612c3a565b915050611034565b508091505090565b60015481565b5f805f8581526020019081526020015f20604051806101400160405290815f82015481526020016001820180546114e790612ae5565b80601f016020809104026020016040519081016040528092919081815260200182805461151390612ae5565b801561155e5780601f106115355761010080835404028352916020019161155e565b820191905f5260205f20905b81548152906001019060200180831161154157829003601f168201915b5050505050815260200160028201805461157790612ae5565b80601f01602080910402602001604051908101604052809291908181526020018280546115a390612ae5565b80156115ee5780601f106115c5576101008083540402835291602001916115ee565b820191905f5260205f20905b8154815290600101906020018083116115d157829003601f168201915b5050505050815260200160038201805461160790612ae5565b80601f016020809104026020016040519081016040528092919081815260200182805461163390612ae5565b801561167e5780601f106116555761010080835404028352916020019161167e565b820191905f5260205f20905b81548152906001019060200180831161166157829003601f168201915b5050505050815260200160048201805461169790612ae5565b80601f01602080910402602001604051908101604052809291908181526020018280546116c390612ae5565b801561170e5780601f106116e55761010080835404028352916020019161170e565b820191905f5260205f20905b8154815290600101906020018083116116f157829003601f168201915b5050505050815260200160058201805461172790612ae5565b80601f016020809104026020016040519081016040528092919081815260200182805461175390612ae5565b801561179e5780601f106117755761010080835404028352916020019161179e565b820191905f5260205f20905b81548152906001019060200180831161178157829003601f168201915b50505050508152602001600682015481526020016007820180546117c190612ae5565b80601f01602080910402602001604051908101604052809291908181526020018280546117ed90612ae5565b80156118385780601f1061180f57610100808354040283529160200191611838565b820191905f5260205f20905b81548152906001019060200180831161181b57829003601f168201915b5050505050815260200160088201805461185190612ae5565b80601f016020809104026020016040519081016040528092919081815260200182805461187d90612ae5565b80156118c85780601f1061189f576101008083540402835291602001916118c8565b820191905f5260205f20905b8154815290600101906020018083116118ab57829003601f168201915b50505050508152602001600982015481525050905060015f8154809291906118ef90612c3a565b91905055506040518061014001604052806001548152602001826020015181526020018260400151815260200182606001518152602001826080015181526020018260a0015181526020018260c0015181526020018260e001518152602001848152602001838152505f8060015481526020019081526020015f205f820151815f015560208201518160010190816119879190612e6c565b50604082015181600201908161199d9190612e6c565b5060608201518160030190816119b39190612e6c565b5060808201518160040190816119c99190612e6c565b5060a08201518160050190816119df9190612e6c565b5060c0820151816006015560e08201518160070190816119ff9190612e6c565b50610100820151816008019081611a169190612e6c565b506101208201518160090155905050837fcbc92fe73220c7cc1450ff1070f1becf254013a1cd6a9d95a4b7c2055b3e9ac98484604051611a57929190612f3b565b60405180910390a250505050565b60605f80600190505b6001548111611afe5783604051602001611a889190612b4f565b604051602081830303815290604052805190602001205f808381526020019081526020015f20600301604051602001611ac19190612bf7565b6040516020818303038152906040528051906020012003611aeb578180611ae790612c3a565b9250505b8080611af690612c3a565b915050611a6e565b505f8167ffffffffffffffff811115611b1a57611b19612442565b5b604051908082528060200260200182016040528015611b5357816020015b611b406121c1565b815260200190600190039081611b385790505b5090505f80600190505b60015481116120345785604051602001611b779190612b4f565b604051602081830303815290604052805190602001205f808381526020019081526020015f20600301604051602001611bb09190612bf7565b6040516020818303038152906040528051906020012003612021575f808281526020019081526020015f20604051806101400160405290815f8201548152602001600182018054611c0090612ae5565b80601f0160208091040260200160405190810160405280929190818152602001828054611c2c90612ae5565b8015611c775780601f10611c4e57610100808354040283529160200191611c77565b820191905f5260205f20905b815481529060010190602001808311611c5a57829003601f168201915b50505050508152602001600282018054611c9090612ae5565b80601f0160208091040260200160405190810160405280929190818152602001828054611cbc90612ae5565b8015611d075780601f10611cde57610100808354040283529160200191611d07565b820191905f5260205f20905b815481529060010190602001808311611cea57829003601f168201915b50505050508152602001600382018054611d2090612ae5565b80601f0160208091040260200160405190810160405280929190818152602001828054611d4c90612ae5565b8015611d975780601f10611d6e57610100808354040283529160200191611d97565b820191905f5260205f20905b815481529060010190602001808311611d7a57829003601f168201915b50505050508152602001600482018054611db090612ae5565b80601f0160208091040260200160405190810160405280929190818152602001828054611ddc90612ae5565b8015611e275780601f10611dfe57610100808354040283529160200191611e27565b820191905f5260205f20905b815481529060010190602001808311611e0a57829003601f168201915b50505050508152602001600582018054611e4090612ae5565b80601f0160208091040260200160405190810160405280929190818152602001828054611e6c90612ae5565b8015611eb75780601f10611e8e57610100808354040283529160200191611eb7565b820191905f5260205f20905b815481529060010190602001808311611e9a57829003601f168201915b5050505050815260200160068201548152602001600782018054611eda90612ae5565b80601f0160208091040260200160405190810160405280929190818152602001828054611f0690612ae5565b8015611f515780601f10611f2857610100808354040283529160200191611f51565b820191905f5260205f20905b815481529060010190602001808311611f3457829003601f168201915b50505050508152602001600882018054611f6a90612ae5565b80601f0160208091040260200160405190810160405280929190818152602001828054611f9690612ae5565b8015611fe15780601f10611fb857610100808354040283529160200191611fe1565b820191905f5260205f20905b815481529060010190602001808311611fc457829003601f168201915b5050505050815260200160098201548152505083838151811061200757612006612c81565b5b6020026020010181905250818061201d90612c3a565b9250505b808061202c90612c3a565b915050611b5d565b50819350505050919050565b60015f81548092919061205290612c3a565b919050555060405180610140016040528060015481526020018a8152602001898152602001888152602001878152602001868152602001858152602001848152602001838152602001828152505f8060015481526020019081526020015f205f820151815f015560208201518160010190816120ce9190612e6c565b5060408201518160020190816120e49190612e6c565b5060608201518160030190816120fa9190612e6c565b5060808201518160040190816121109190612e6c565b5060a08201518160050190816121269190612e6c565b5060c0820151816006015560e08201518160070190816121469190612e6c565b5061010082015181600801908161215d9190612e6c565b5061012082015181600901559050506001547fb9fa3120aa0d6b273bb5d801c953402c2200d80441be5a411f49fd06d1d484e68a8a8a8a8a8a8a8a8a6040516121ae99989796959493929190612f69565b60405180910390a2505050505050505050565b6040518061014001604052805f815260200160608152602001606081526020016060815260200160608152602001606081526020015f815260200160608152602001606081526020015f81525090565b5f604051905090565b5f80fd5b5f80fd5b5f819050919050565b61223481612222565b811461223e575f80fd5b50565b5f8135905061224f8161222b565b92915050565b5f6020828403121561226a5761226961221a565b5b5f61227784828501612241565b91505092915050565b61228981612222565b82525050565b5f81519050919050565b5f82825260208201905092915050565b5f5b838110156122c65780820151818401526020810190506122ab565b5f8484015250505050565b5f601f19601f8301169050919050565b5f6122eb8261228f565b6122f58185612299565b93506123058185602086016122a9565b61230e816122d1565b840191505092915050565b5f61014083015f83015161232f5f860182612280565b506020830151848203602086015261234782826122e1565b9150506040830151848203604086015261236182826122e1565b9150506060830151848203606086015261237b82826122e1565b9150506080830151848203608086015261239582826122e1565b91505060a083015184820360a08601526123af82826122e1565b91505060c08301516123c460c0860182612280565b5060e083015184820360e08601526123dc82826122e1565b9150506101008301518482036101008601526123f882826122e1565b91505061012083015161240f610120860182612280565b508091505092915050565b5f6020820190508181035f8301526124328184612319565b905092915050565b5f80fd5b5f80fd5b7f4e487b71000000000000000000000000000000000000000000000000000000005f52604160045260245ffd5b612478826122d1565b810181811067ffffffffffffffff8211171561249757612496612442565b5b80604052505050565b5f6124a9612211565b90506124b5828261246f565b919050565b5f67ffffffffffffffff8211156124d4576124d3612442565b5b6124dd826122d1565b9050602081019050919050565b828183375f83830152505050565b5f61250a612505846124ba565b6124a0565b9050828152602081018484840111156125265761252561243e565b5b6125318482856124ea565b509392505050565b5f82601f83011261254d5761254c61243a565b5b813561255d8482602086016124f8565b91505092915050565b5f6020828403121561257b5761257a61221a565b5b5f82013567ffffffffffffffff8111156125985761259761221e565b5b6125a484828501612539565b91505092915050565b5f81519050919050565b5f82825260208201905092915050565b5f819050602082019050919050565b5f61014083015f8301516125ec5f860182612280565b506020830151848203602086015261260482826122e1565b9150506040830151848203604086015261261e82826122e1565b9150506060830151848203606086015261263882826122e1565b9150506080830151848203608086015261265282826122e1565b91505060a083015184820360a086015261266c82826122e1565b91505060c083015161268160c0860182612280565b5060e083015184820360e086015261269982826122e1565b9150506101008301518482036101008601526126b582826122e1565b9150506101208301516126cc610120860182612280565b508091505092915050565b5f6126e283836125d6565b905092915050565b5f602082019050919050565b5f612700826125ad565b61270a81856125b7565b93508360208202850161271c856125c7565b805f5b85811015612757578484038952815161273885826126d7565b9450612743836126ea565b925060208a0199505060018101905061271f565b50829750879550505050505092915050565b5f6020820190508181035f83015261278181846126f6565b905092915050565b61279281612222565b82525050565b5f82825260208201905092915050565b5f6127b28261228f565b6127bc8185612798565b93506127cc8185602086016122a9565b6127d5816122d1565b840191505092915050565b5f610140820190506127f45f83018d612789565b8181036020830152612806818c6127a8565b9050818103604083015261281a818b6127a8565b9050818103606083015261282e818a6127a8565b9050818103608083015261284281896127a8565b905081810360a083015261285681886127a8565b905061286560c0830187612789565b81810360e083015261287781866127a8565b905081810361010083015261288c81856127a8565b905061289c610120830184612789565b9b9a5050505050505050505050565b5f6020820190506128be5f830184612789565b92915050565b5f805f606084860312156128db576128da61221a565b5b5f6128e886828701612241565b935050602084013567ffffffffffffffff8111156129095761290861221e565b5b61291586828701612539565b925050604061292686828701612241565b9150509250925092565b5f805f805f805f805f6101208a8c03121561294e5761294d61221a565b5b5f8a013567ffffffffffffffff81111561296b5761296a61221e565b5b6129778c828d01612539565b99505060208a013567ffffffffffffffff8111156129985761299761221e565b5b6129a48c828d01612539565b98505060408a013567ffffffffffffffff8111156129c5576129c461221e565b5b6129d18c828d01612539565b97505060608a013567ffffffffffffffff8111156129f2576129f161221e565b5b6129fe8c828d01612539565b96505060808a013567ffffffffffffffff811115612a1f57612a1e61221e565b5b612a2b8c828d01612539565b95505060a0612a3c8c828d01612241565b94505060c08a013567ffffffffffffffff811115612a5d57612a5c61221e565b5b612a698c828d01612539565b93505060e08a013567ffffffffffffffff811115612a8a57612a8961221e565b5b612a968c828d01612539565b925050610100612aa88c828d01612241565b9150509295985092959850929598565b7f4e487b71000000000000000000000000000000000000000000000000000000005f52602260045260245ffd5b5f6002820490506001821680612afc57607f821691505b602082108103612b0f57612b0e612ab8565b5b50919050565b5f81905092915050565b5f612b298261228f565b612b338185612b15565b9350612b438185602086016122a9565b80840191505092915050565b5f612b5a8284612b1f565b915081905092915050565b5f819050815f5260205f209050919050565b5f8154612b8381612ae5565b612b8d8186612b15565b9450600182165f8114612ba75760018114612bbc57612bee565b60ff1983168652811515820286019350612bee565b612bc585612b65565b5f5b83811015612be657815481890152600182019150602081019050612bc7565b838801955050505b50505092915050565b5f612c028284612b77565b915081905092915050565b7f4e487b71000000000000000000000000000000000000000000000000000000005f52601160045260245ffd5b5f612c4482612222565b91507fffffffffffffffffffffffffffffffffffffffffffffffffffffffffffffffff8203612c7657612c75612c0d565b5b600182019050919050565b7f4e487b71000000000000000000000000000000000000000000000000000000005f52603260045260245ffd5b5f612cb882612222565b9150612cc383612222565b9250828203905081811115612cdb57612cda612c0d565b5b92915050565b5f6020601f8301049050919050565b5f82821b905092915050565b5f60088302612d2b7fffffffffffffffffffffffffffffffffffffffffffffffffffffffffffffffff82612cf0565b612d358683612cf0565b95508019841693508086168417925050509392505050565b5f819050919050565b5f612d70612d6b612d6684612222565b612d4d565b612222565b9050919050565b5f819050919050565b612d8983612d56565b612d9d612d9582612d77565b848454612cfc565b825550505050565b5f90565b612db1612da5565b612dbc818484612d80565b505050565b5b81811015612ddf57612dd45f82612da9565b600181019050612dc2565b5050565b601f821115612e2457612df581612b65565b612dfe84612ce1565b81016020851015612e0d578190505b612e21612e1985612ce1565b830182612dc1565b50505b505050565b5f82821c905092915050565b5f612e445f1984600802612e29565b1980831691505092915050565b5f612e5c8383612e35565b9150826002028217905092915050565b612e758261228f565b67ffffffffffffffff811115612e8e57612e8d612442565b5b612e988254612ae5565b612ea3828285612de3565b5f60209050601f831160018114612ed4575f8415612ec2578287015190505b612ecc8582612e51565b865550612f33565b601f198416612ee286612b65565b5f5b82811015612f0957848901518255600182019150602085019450602081019050612ee4565b86831015612f265784890151612f22601f891682612e35565b8355505b6001600288020188555050505b505050505050565b5f6040820190508181035f830152612f5381856127a8565b9050612f626020830184612789565b9392505050565b5f610120820190508181035f830152612f82818c6127a8565b90508181036020830152612f96818b6127a8565b90508181036040830152612faa818a6127a8565b90508181036060830152612fbe81896127a8565b90508181036080830152612fd281886127a8565b9050612fe160a0830187612789565b81810360c0830152612ff381866127a8565b905081810360e083015261300781856127a8565b9050613017610100830184612789565b9a995050505050505050505056fea264697066735822122095e52d26060b82ba570da7f0b795c8ef77cb4a7d5f371de0b76507ad9d3dcaa064736f6c63430008150033",
  "immutableReferences": {},
  "source": "// SPDX-License-Identifier: MIT\npragma solidity >=0.4.22 <0.9.0;\n\ncontract TransactionContract {\n    struct Transaction {\n        uint transactionId;\n        string transactionCode;\n        string buyer;\n        string buyerId;\n        string sellerCompany;\n        string sellerId;\n        uint sumOfProduct;\n        string totalPrice;\n        string paymentStatus;\n        uint createdAt;\n    }\n\n    event TransactionAdded(\n        uint indexed transactionId,\n        string transactionCode,\n        string buyer,\n        string buyerId,\n        string sellerCompany,\n        string sellerId,\n        uint sumOfProduct,\n        string totalPrice,\n        string paymentStatus,\n        uint createdAt\n    );\n\n    event PaymentStatusUpdated(\n        uint indexed transactionId,\n        string paymentStatus,\n        uint updateAt\n    );\n\n    mapping(uint => Transaction) public transactions;\n    uint public transactionCount;\n\n    function addTransaction(\n        string memory _transactionCode,\n        string memory _buyer,\n        string memory _buyerId,\n        string memory _sellerCompany,\n        string memory _sellerId,\n        uint _sumOfProduct,\n        string memory _totalPrice,\n        string memory _paymentStatus,\n        uint _createdAt\n    ) public {\n        transactionCount++;\n        transactions[transactionCount] = Transaction(\n            transactionCount,\n            _transactionCode,\n            _buyer,\n            _buyerId,\n            _sellerCompany,\n            _sellerId,\n            _sumOfProduct,\n            _totalPrice,\n            _paymentStatus,\n            _createdAt\n        );\n\n        emit TransactionAdded(\n          transactionCount,\n            _transactionCode,\n            _buyer,\n            _buyerId,\n            _sellerCompany,\n            _sellerId,\n            _sumOfProduct,\n            _totalPrice,\n            _paymentStatus,\n            _createdAt\n        );\n    }\n\n    function getTransaction(\n        uint _transactionId\n    ) public view returns (Transaction memory) {\n        return transactions[_transactionId];\n    }\n\n    function updatePaymentStatus(\n        uint _transactionId,\n        string memory _paymentStatus,\n        uint _createdAt\n    ) public {\n      Transaction memory originalTransaction = transactions[_transactionId];\n      transactionCount++;\n      transactions[transactionCount] = Transaction(\n        transactionCount,\n            originalTransaction.transactionCode,\n            originalTransaction.buyer,\n            originalTransaction.buyerId,\n            originalTransaction.sellerCompany,\n            originalTransaction.sellerId,\n            originalTransaction.sumOfProduct,\n            originalTransaction.totalPrice,\n            _paymentStatus,\n            _createdAt\n      );\n\n      emit PaymentStatusUpdated(\n        _transactionId,\n        _paymentStatus,\n        _createdAt\n      );\n    }\n\n    function getAllTransaction() public view returns (Transaction[] memory) {\n      Transaction[] memory _transactions = new Transaction[](\n        transactionCount\n      );\n      for (uint i = 1; i <= transactionCount; i++) {\n        _transactions[i - 1] = transactions[i];\n      }\n      return _transactions;\n    }\n\n    function getTransactionByBuyerId(\n      string memory _buyerId\n    ) public view returns (Transaction[] memory) {\n      uint count = 0;\n      for (uint i = 1; i <= transactionCount; i++){\n        if (\n          keccak256(abi.encodePacked(transactions[i].buyerId)) ==\n          keccak256(abi.encodePacked(_buyerId))\n        ) {\n          count ++;\n        }\n      }\n      Transaction[] memory _transactions = new Transaction[](count);\n      uint j = 0;\n      for (uint i = 1; i <= transactionCount; i++){\n        if(\n          keccak256(abi.encodePacked(transactions[i].buyerId)) ==\n          keccak256(abi.encodePacked(_buyerId))\n        ) {\n          _transactions[j] = transactions[i];\n          j++;\n        }\n      }\n      return _transactions;\n    }\n\n   function getTransactionBySellerId(\n        string memory _sellerId\n    ) public view returns (Transaction[] memory) {\n        uint count = 0;\n        for (uint i = 1; i <= transactionCount; i++) {\n            if (\n                keccak256(abi.encodePacked(transactions[i].sellerId)) ==\n                keccak256(abi.encodePacked(_sellerId))\n            ) {\n                count++;\n            }\n        }\n        Transaction[] memory _transactions = new Transaction[](count);\n        uint j = 0;\n        for (uint i = 1; i <= transactionCount; i++) {\n            if (\n                keccak256(abi.encodePacked(transactions[i].sellerId)) ==\n                keccak256(abi.encodePacked(_sellerId))\n            ) {\n                _transactions[j] = transactions[i];\n                j++;\n            }\n        }\n        return _transactions;\n    }\n}\n",
  "sourcePath": "D:\\test-blockchain\\contracts\\TransactionContract.sol",
  "compiler": {
    "name": "solc",
    "version": "0.8.21+commit.d9974bed.Emscripten.clang"
  },
  "schemaVersion": "3.4.16",
  "updatedAt": "2024-03-27T04:58:02.953Z",
  "networkType": "ethereum",
  "devdoc": {
    "kind": "dev",
    "methods": {},
    "version": 1
  },
  "userdoc": {
    "kind": "user",
    "methods": {},
    "version": 1
  }
}